{
  "_format": "hh-sol-artifact-1",
  "contractName": "OnChainAnalytics",
  "sourceName": "contracts/OnChainAnalytics.sol",
  "abi": [
    {
      "anonymous": false,
      "inputs": [
        {
          "indexed": true,
          "internalType": "address",
          "name": "addr",
          "type": "address"
        },
        {
          "indexed": false,
          "internalType": "bool",
          "name": "isContract",
          "type": "bool"
        }
      ],
      "name": "AddressAdded",
      "type": "event"
    },
    {
      "anonymous": false,
      "inputs": [
        {
          "indexed": true,
          "internalType": "address",
          "name": "from",
          "type": "address"
        },
        {
          "indexed": true,
          "internalType": "address",
          "name": "to",
          "type": "address"
        },
        {
          "indexed": false,
          "internalType": "uint256",
          "name": "value",
          "type": "uint256"
        },
        {
          "indexed": true,
          "internalType": "bytes32",
          "name": "txHash",
          "type": "bytes32"
        }
      ],
      "name": "TransactionRecorded",
      "type": "event"
    },
    {
      "inputs": [
        {
          "internalType": "address",
          "name": "",
          "type": "address"
        }
      ],
      "name": "addressStats",
      "outputs": [
        {
          "internalType": "uint256",
          "name": "totalTransactions",
          "type": "uint256"
        },
        {
          "internalType": "uint256",
          "name": "totalValue",
          "type": "uint256"
        },
        {
          "internalType": "uint256",
          "name": "firstSeen",
          "type": "uint256"
        },
        {
          "internalType": "uint256",
          "name": "lastActive",
          "type": "uint256"
        },
        {
          "internalType": "bool",
          "name": "isContract",
          "type": "bool"
        }
      ],
      "stateMutability": "view",
      "type": "function"
    },
    {
      "inputs": [
        {
          "internalType": "address",
          "name": "addr",
          "type": "address"
        }
      ],
      "name": "getAddressAnalytics",
      "outputs": [
        {
          "components": [
            {
              "internalType": "uint256",
              "name": "totalTransactions",
              "type": "uint256"
            },
            {
              "internalType": "uint256",
              "name": "totalValue",
              "type": "uint256"
            },
            {
              "internalType": "uint256",
              "name": "firstSeen",
              "type": "uint256"
            },
            {
              "internalType": "uint256",
              "name": "lastActive",
              "type": "uint256"
            },
            {
              "internalType": "bool",
              "name": "isContract",
              "type": "bool"
            }
          ],
          "internalType": "struct OnChainAnalytics.AddressAnalytics",
          "name": "",
          "type": "tuple"
        }
      ],
      "stateMutability": "view",
      "type": "function"
    },
    {
      "inputs": [
        {
          "internalType": "uint256",
          "name": "index",
          "type": "uint256"
        }
      ],
      "name": "getAddressByIndex",
      "outputs": [
        {
          "internalType": "address",
          "name": "",
          "type": "address"
        }
      ],
      "stateMutability": "view",
      "type": "function"
    },
    {
      "inputs": [],
      "name": "getNetworkStats",
      "outputs": [
        {
          "internalType": "uint256",
          "name": "totalTxs",
          "type": "uint256"
        },
        {
          "internalType": "uint256",
          "name": "totalValue",
          "type": "uint256"
        },
        {
          "internalType": "uint256",
          "name": "uniqueAddresses",
          "type": "uint256"
        },
        {
          "internalType": "uint256",
          "name": "contractAddresses",
          "type": "uint256"
        }
      ],
      "stateMutability": "view",
      "type": "function"
    },
    {
      "inputs": [
        {
          "internalType": "uint256",
          "name": "limit",
          "type": "uint256"
        }
      ],
      "name": "getRecentTransactions",
      "outputs": [
        {
          "components": [
            {
              "internalType": "address",
              "name": "from",
              "type": "address"
            },
            {
              "internalType": "address",
              "name": "to",
              "type": "address"
            },
            {
              "internalType": "uint256",
              "name": "value",
              "type": "uint256"
            },
            {
              "internalType": "uint256",
              "name": "timestamp",
              "type": "uint256"
            },
            {
              "internalType": "bytes32",
              "name": "txHash",
              "type": "bytes32"
            }
          ],
          "internalType": "struct OnChainAnalytics.TransactionData[]",
          "name": "",
          "type": "tuple[]"
        }
      ],
      "stateMutability": "view",
      "type": "function"
    },
    {
      "inputs": [
        {
          "internalType": "uint256",
          "name": "limit",
          "type": "uint256"
        }
      ],
      "name": "getTopAddresses",
      "outputs": [
        {
          "internalType": "address[]",
          "name": "",
          "type": "address[]"
        },
        {
          "internalType": "uint256[]",
          "name": "",
          "type": "uint256[]"
        }
      ],
      "stateMutability": "view",
      "type": "function"
    },
    {
      "inputs": [],
      "name": "getTrackedAddressCount",
      "outputs": [
        {
          "internalType": "uint256",
          "name": "",
          "type": "uint256"
        }
      ],
      "stateMutability": "view",
      "type": "function"
    },
    {
      "inputs": [
        {
          "internalType": "bytes32",
          "name": "txHash",
          "type": "bytes32"
        }
      ],
      "name": "getTransactionByHash",
      "outputs": [
        {
          "components": [
            {
              "internalType": "address",
              "name": "from",
              "type": "address"
            },
            {
              "internalType": "address",
              "name": "to",
              "type": "address"
            },
            {
              "internalType": "uint256",
              "name": "value",
              "type": "uint256"
            },
            {
              "internalType": "uint256",
              "name": "timestamp",
              "type": "uint256"
            },
            {
              "internalType": "bytes32",
              "name": "txHash",
              "type": "bytes32"
            }
          ],
          "internalType": "struct OnChainAnalytics.TransactionData",
          "name": "",
          "type": "tuple"
        }
      ],
      "stateMutability": "view",
      "type": "function"
    },
    {
      "inputs": [],
      "name": "getTransactionCount",
      "outputs": [
        {
          "internalType": "uint256",
          "name": "",
          "type": "uint256"
        }
      ],
      "stateMutability": "view",
      "type": "function"
    },
    {
      "inputs": [
        {
          "internalType": "bytes32",
          "name": "txHash",
          "type": "bytes32"
        }
      ],
      "name": "isTransactionRecorded",
      "outputs": [
        {
          "internalType": "bool",
          "name": "",
          "type": "bool"
        }
      ],
      "stateMutability": "view",
      "type": "function"
    },
    {
      "inputs": [
        {
          "internalType": "address",
          "name": "from",
          "type": "address"
        },
        {
          "internalType": "address",
          "name": "to",
          "type": "address"
        },
        {
          "internalType": "uint256",
          "name": "value",
          "type": "uint256"
        },
        {
          "internalType": "bytes32",
          "name": "txHash",
          "type": "bytes32"
        }
      ],
      "name": "recordTransaction",
      "outputs": [],
      "stateMutability": "nonpayable",
      "type": "function"
    },
    {
      "inputs": [],
      "name": "totalTransactionsTracked",
      "outputs": [
        {
          "internalType": "uint256",
          "name": "",
          "type": "uint256"
        }
      ],
      "stateMutability": "view",
      "type": "function"
    },
    {
      "inputs": [],
      "name": "totalValueTransferred",
      "outputs": [
        {
          "internalType": "uint256",
          "name": "",
          "type": "uint256"
        }
      ],
      "stateMutability": "view",
      "type": "function"
    },
    {
      "inputs": [
        {
          "internalType": "uint256",
          "name": "",
          "type": "uint256"
        }
      ],
      "name": "trackedAddresses",
      "outputs": [
        {
          "internalType": "address",
          "name": "",
          "type": "address"
        }
      ],
      "stateMutability": "view",
      "type": "function"
    },
    {
      "inputs": [
        {
          "internalType": "uint256",
          "name": "",
          "type": "uint256"
        }
      ],
      "name": "transactionHistory",
      "outputs": [
        {
          "internalType": "address",
          "name": "from",
          "type": "address"
        },
        {
          "internalType": "address",
          "name": "to",
          "type": "address"
        },
        {
          "internalType": "uint256",
          "name": "value",
          "type": "uint256"
        },
        {
          "internalType": "uint256",
          "name": "timestamp",
          "type": "uint256"
        },
        {
          "internalType": "bytes32",
          "name": "txHash",
          "type": "bytes32"
        }
      ],
      "stateMutability": "view",
      "type": "function"
    },
    {
      "inputs": [
        {
          "internalType": "bytes32",
          "name": "",
          "type": "bytes32"
        }
      ],
      "name": "transactions",
      "outputs": [
        {
          "internalType": "address",
          "name": "from",
          "type": "address"
        },
        {
          "internalType": "address",
          "name": "to",
          "type": "address"
        },
        {
          "internalType": "uint256",
          "name": "value",
          "type": "uint256"
        },
        {
          "internalType": "uint256",
          "name": "timestamp",
          "type": "uint256"
        },
        {
          "internalType": "bytes32",
          "name": "txHash",
          "type": "bytes32"
        }
      ],
      "stateMutability": "view",
      "type": "function"
    }
  ],
  "bytecode": "0x608060405234801561001057600080fd5b50611580806100206000396000f3fe608060405234801561001057600080fd5b50600436106101005760003560e01c8063642f2eaf11610097578063ce10cf8811610066578063ce10cf8814610335578063dd52db4114610360578063ee3d7ad314610369578063f7de2b3d1461038957600080fd5b8063642f2eaf1461023f57806377b2bf7d1461028957806379cecf46146102be5780637e1af71b146102de57600080fd5b80634a662f48116100d35780634a662f481461018f5780634e660c64146101b7578063526c8f8a146101cc5780635ea086201461023657600080fd5b806305134e2714610105578063197a7f5a1461012f578063243e7a87146101415780632e7700f014610187575b600080fd5b6101186101133660046112c6565b61039c565b6040516101269291906112df565b60405180910390f35b6003545b604051908152602001610126565b61015461014f3660046112c6565b610884565b604080516001600160a01b039687168152959094166020860152928401919091526060830152608082015260a001610126565b600254610133565b6101976108d1565b604080519485526020850193909352918301526060820152608001610126565b6101ca6101c536600461137f565b61095a565b005b61020c6101da3660046113c1565b600060208190529081526040902080546001820154600283015460038401546004909401549293919290919060ff1685565b6040805195865260208601949094529284019190915260608301521515608082015260a001610126565b61013360055481565b61015461024d3660046112c6565b6001602081905260009182526040909120805491810154600282015460038301546004909301546001600160a01b039485169490921692909185565b6102ae6102973660046112c6565b600090815260016020526040902060030154151590565b6040519015158152602001610126565b6102d16102cc3660046112c6565b610d5b565b604051610126919061141e565b6102f16102ec3660046113c1565b610f8a565b6040516101269190600060a0820190508251825260208301516020830152604083015160408301526060830151606083015260808301511515608083015292915050565b6103486103433660046112c6565b611041565b6040516001600160a01b039091168152602001610126565b61013360045481565b61037c6103773660046112c6565b6110b9565b604051610126919061146c565b6103486103973660046112c6565b611198565b600354606090819015806103ae575082155b806103b95750603283115b156103dc5750506040805160008082526020820190815281830190925292909150565b60035460009084106103f0576003546103f2565b835b905060008167ffffffffffffffff81111561040f5761040f611480565b604051908082528060200260200182016040528015610438578160200160208202803683370190505b50905060008267ffffffffffffffff81111561045657610456611480565b60405190808252806020026020018201604052801561047f578160200160208202803683370190505b5060035490915060009067ffffffffffffffff8111156104a1576104a1611480565b6040519080825280602002602001820160405280156104ca578160200160208202803683370190505b5060035490915060009067ffffffffffffffff8111156104ec576104ec611480565b604051908082528060200260200182016040528015610515578160200160208202803683370190505b50905060005b6003548110156105f7576003818154811061053857610538611496565b9060005260206000200160009054906101000a90046001600160a01b031683828151811061056857610568611496565b60200260200101906001600160a01b031690816001600160a01b0316815250506000806003838154811061059e5761059e611496565b60009182526020808320909101546001600160a01b0316835282019290925260400190206001015482518390839081106105da576105da611496565b6020908102919091010152806105ef816114c2565b91505061051b565b5060005b6001835161060991906114db565b8110156107d45760005b600182855161062291906114db565b61062c91906114db565b8110156107c1578261063f8260016114ee565b8151811061064f5761064f611496565b602002602001015183828151811061066957610669611496565b602002602001015110156107af57600083828151811061068b5761068b611496565b60200260200101519050838260016106a391906114ee565b815181106106b3576106b3611496565b60200260200101518483815181106106cd576106cd611496565b602090810291909101015280846106e58460016114ee565b815181106106f5576106f5611496565b602002602001018181525050600085838151811061071557610715611496565b602002602001015190508583600161072d91906114ee565b8151811061073d5761073d611496565b602002602001015186848151811061075757610757611496565b6001600160a01b0390921660209283029190910190910152808661077c8560016114ee565b8151811061078c5761078c611496565b60200260200101906001600160a01b031690816001600160a01b03168152505050505b806107b9816114c2565b915050610613565b50806107cc816114c2565b9150506105fb565b5060005b85811015610875578281815181106107f2576107f2611496565b602002602001015185828151811061080c5761080c611496565b60200260200101906001600160a01b031690816001600160a01b03168152505081818151811061083e5761083e611496565b602002602001015184828151811061085857610858611496565b60209081029190910101528061086d816114c2565b9150506107d8565b50929791965090945050505050565b6002818154811061089457600080fd5b6000918252602090912060059091020180546001820154600283015460038401546004909401546001600160a01b03938416955091909216929085565b600454600554600354600080805b60035481101561094f57600080600383815481106108ff576108ff611496565b60009182526020808320909101546001600160a01b0316835282019290925260400190206004015460ff161561093d5781610939816114c2565b9250505b80610947816114c2565b9150506108df565b508091505090919293565b836001600160a01b03811661098a5760405162461bcd60e51b815260040161098190611501565b60405180910390fd5b836001600160a01b0381166109b15760405162461bcd60e51b815260040161098190611501565b8360008111610a135760405162461bcd60e51b815260206004820152602860248201527f496e76616c69642076616c75653a206d7573742062652067726561746572207460448201526768616e207a65726f60c01b6064820152608401610981565b856001600160a01b0316876001600160a01b031603610a9a5760405162461bcd60e51b815260206004820152603b60248201527f496e76616c6964207472616e73616374696f6e3a2073656e64657220616e642060448201527f72656365697665722063616e6e6f74206265207468652073616d6500000000006064820152608401610981565b60008481526001602052604090206003015415610af95760405162461bcd60e51b815260206004820152601c60248201527f5472616e73616374696f6e20616c7265616479207265636f72646564000000006044820152606401610981565b83610b465760405162461bcd60e51b815260206004820152601860248201527f496e76616c6964207472616e73616374696f6e206861736800000000000000006044820152606401610981565b6040805160a0810182526001600160a01b03898116825288811660208084019182528385018a81524260608601908152608086018b815260008c8152600194859052978820875181546001600160a01b0319908116918916919091178255865182870180548316918a169190911790558451600280840191909155845160038401558351600490930192909255815480870183559190995287517f405787fa12a823e0f2b7631cc41b3ba8828b3321ca811111fa75cd3aa3bb5ace600590920291820180548b1691891691909117905594517f405787fa12a823e0f2b7631cc41b3ba8828b3321ca811111fa75cd3aa3bb5acf86018054909916961695909517909655517f405787fa12a823e0f2b7631cc41b3ba8828b3321ca811111fa75cd3aa3bb5ad083015593517f405787fa12a823e0f2b7631cc41b3ba8828b3321ca811111fa75cd3aa3bb5ad182015590517f405787fa12a823e0f2b7631cc41b3ba8828b3321ca811111fa75cd3aa3bb5ad29091015590610cc990899088906111c2565b610cd5878760006111c2565b60048054906000610ce5836114c2565b91905055508560056000828254610cfc91906114ee565b9250508190555084876001600160a01b0316896001600160a01b03167fc86acf0958c5e58a72a83f304b18bd15a8d49cbf2a3724d3c0712cbf2b05982c89604051610d4991815260200190565b60405180910390a45050505050505050565b6060816064600082118015610d705750808211155b610dbc5760405162461bcd60e51b815260206004820152601b60248201527f496e76616c6964206c696d69743a206f7574206f662072616e676500000000006044820152606401610981565b600254600003610e1f576040805160008082526020820190925290610e17565b6040805160a081018252600080825260208083018290529282018190526060820181905260808201528252600019909201910181610ddc5790505b509250610f83565b6002546000908510610e32576000610e40565b600254610e409086906114db565b600254909150600090610e549083906114db565b905060008167ffffffffffffffff811115610e7157610e71611480565b604051908082528060200260200182016040528015610eca57816020015b6040805160a081018252600080825260208083018290529282018190526060820181905260808201528252600019909201910181610e8f5790505b50905060005b82811015610f7d576002610ee482866114ee565b81548110610ef457610ef4611496565b60009182526020918290206040805160a081018252600590930290910180546001600160a01b039081168452600182015416938301939093526002830154908201526003820154606082015260049091015460808201528251839083908110610f5f57610f5f611496565b60200260200101819052508080610f75906114c2565b915050610ed0565b50945050505b5050919050565b610fbe6040518060a00160405280600081526020016000815260200160008152602001600081526020016000151581525090565b816001600160a01b038116610fe55760405162461bcd60e51b815260040161098190611501565b50506001600160a01b031660009081526020818152604091829020825160a081018452815481526001820154928101929092526002810154928201929092526003820154606082015260049091015460ff161515608082015290565b600354600090821061108b5760405162461bcd60e51b8152602060048201526013602482015272496e646578206f7574206f6620626f756e647360681b6044820152606401610981565b6003828154811061109e5761109e611496565b6000918252602090912001546001600160a01b031692915050565b6040805160a081018252600080825260208201819052918101829052606081018290526080810191909152600082815260016020526040812060030154900361113c5760405162461bcd60e51b8152602060048201526015602482015274151c985b9cd858dd1a5bdb881b9bdd08199bdd5b99605a1b6044820152606401610981565b50600090815260016020818152604092839020835160a08101855281546001600160a01b039081168252938201549093169183019190915260028101549282019290925260038201546060820152600490910154608082015290565b600381815481106111a857600080fd5b6000918252602090912001546001600160a01b0316905081565b6001600160a01b038316600090815260208190526040812060028101549091036112875742600282015560048101805460ff1916853b1515178155600380546001810182556000919091527fc2575a0e9e593c00f959f8c92f12db2869c3395a3b0502d05e2516446f71f85b0180546001600160a01b0387166001600160a01b0319909116811790915590546040805160ff90921615158252517ff04743d1f6fa2fb5e464bf3585212fe22070aa0323a0adf870a5a39b914335129181900360200190a25b8054816000611295836114c2565b909155505042600382015581156112c057828160010160008282546112ba91906114ee565b90915550505b50505050565b6000602082840312156112d857600080fd5b5035919050565b604080825283519082018190526000906020906060840190828701845b828110156113215781516001600160a01b0316845292840192908401906001016112fc565b5050508381038285015284518082528583019183019060005b818110156113565783518352928401929184019160010161133a565b5090979650505050505050565b80356001600160a01b038116811461137a57600080fd5b919050565b6000806000806080858703121561139557600080fd5b61139e85611363565b93506113ac60208601611363565b93969395505050506040820135916060013590565b6000602082840312156113d357600080fd5b6113dc82611363565b9392505050565b80516001600160a01b039081168352602080830151909116908301526040808201519083015260608082015190830152608090810151910152565b6020808252825182820181905260009190848201906040850190845b818110156114605761144d8385516113e3565b9284019260a0929092019160010161143a565b50909695505050505050565b60a0810161147a82846113e3565b92915050565b634e487b7160e01b600052604160045260246000fd5b634e487b7160e01b600052603260045260246000fd5b634e487b7160e01b600052601160045260246000fd5b6000600182016114d4576114d46114ac565b5060010190565b8181038181111561147a5761147a6114ac565b8082018082111561147a5761147a6114ac565b60208082526029908201527f496e76616c696420616464726573733a207a65726f2061646472657373206e6f6040820152681d08185b1b1bddd95960ba1b60608201526080019056fea2646970667358221220f65b4691864637057f7b44b88582dbdfd016abb84f3ce4c34773190f71dc73fb64736f6c63430008130033",
  "linkReferences": {},
  "deployedLinkReferences": {}
}